{
  "contractName": "Staking",
  "abi": [
    {
      "inputs": [
        {
          "internalType": "address",
          "name": "_stakingToken",
          "type": "address"
        }
      ],
      "stateMutability": "nonpayable",
      "type": "constructor"
    },
    {
      "inputs": [],
      "name": "claimAmount",
      "outputs": [
        {
          "internalType": "uint256",
          "name": "",
          "type": "uint256"
        }
      ],
      "stateMutability": "view",
      "type": "function",
      "constant": true
    },
    {
      "inputs": [],
      "name": "lastUpdateTime",
      "outputs": [
        {
          "internalType": "uint256",
          "name": "",
          "type": "uint256"
        }
      ],
      "stateMutability": "view",
      "type": "function",
      "constant": true
    },
    {
      "inputs": [],
      "name": "rewardRate",
      "outputs": [
        {
          "internalType": "uint256",
          "name": "",
          "type": "uint256"
        }
      ],
      "stateMutability": "view",
      "type": "function",
      "constant": true
    },
    {
      "inputs": [],
      "name": "stakingToken",
      "outputs": [
        {
          "internalType": "contract IERC20",
          "name": "",
          "type": "address"
        }
      ],
      "stateMutability": "view",
      "type": "function",
      "constant": true
    },
    {
      "inputs": [
        {
          "internalType": "address",
          "name": "",
          "type": "address"
        }
      ],
      "name": "userBalance",
      "outputs": [
        {
          "internalType": "uint256",
          "name": "",
          "type": "uint256"
        }
      ],
      "stateMutability": "view",
      "type": "function",
      "constant": true
    },
    {
      "inputs": [
        {
          "internalType": "address",
          "name": "",
          "type": "address"
        }
      ],
      "name": "userReward",
      "outputs": [
        {
          "internalType": "uint256",
          "name": "",
          "type": "uint256"
        }
      ],
      "stateMutability": "view",
      "type": "function",
      "constant": true
    },
    {
      "inputs": [
        {
          "internalType": "address",
          "name": "account",
          "type": "address"
        }
      ],
      "name": "getStaked",
      "outputs": [
        {
          "internalType": "uint256",
          "name": "",
          "type": "uint256"
        }
      ],
      "stateMutability": "view",
      "type": "function",
      "constant": true
    },
    {
      "inputs": [],
      "name": "updateRewardAmount",
      "outputs": [],
      "stateMutability": "nonpayable",
      "type": "function"
    },
    {
      "inputs": [],
      "name": "claim",
      "outputs": [],
      "stateMutability": "nonpayable",
      "type": "function"
    },
    {
      "inputs": [
        {
          "internalType": "uint256",
          "name": "amount",
          "type": "uint256"
        }
      ],
      "name": "stake",
      "outputs": [],
      "stateMutability": "nonpayable",
      "type": "function"
    },
    {
      "inputs": [
        {
          "internalType": "uint256",
          "name": "amount",
          "type": "uint256"
        }
      ],
      "name": "withDraw",
      "outputs": [],
      "stateMutability": "nonpayable",
      "type": "function"
    }
  ],
  "bytecode": "0x608060405234801561001057600080fd5b50604051610bfe380380610bfe833981810160405281019061003291906100e4565b600160008190555080600160006101000a81548173ffffffffffffffffffffffffffffffffffffffff021916908373ffffffffffffffffffffffffffffffffffffffff16021790555050610111565b600080fd5b600073ffffffffffffffffffffffffffffffffffffffff82169050919050565b60006100b182610086565b9050919050565b6100c1816100a6565b81146100cc57600080fd5b50565b6000815190506100de816100b8565b92915050565b6000602082840312156100fa576100f9610081565b5b6000610108848285016100cf565b91505092915050565b610ade806101206000396000f3fe608060405234801561001057600080fd5b50600436106100a85760003560e01c806372f702f31161007157806372f702f3146101635780637b0a47ee14610181578063830953ab1461019f578063a694fc3a146101bd578063c8f33c91146101d9578063fa9465d5146101f7576100a8565b80620a74be146100ad5780630103c92b146100dd57806314174f331461010d578063399080ec146101295780634e71d92d14610159575b600080fd5b6100c760048036038101906100c29190610703565b610201565b6040516100d49190610749565b60405180910390f35b6100f760048036038101906100f29190610703565b610219565b6040516101049190610749565b60405180910390f35b61012760048036038101906101229190610790565b610231565b005b610143600480360381019061013e9190610703565b610310565b6040516101509190610749565b60405180910390f35b610161610359565b005b61016b61041a565b604051610178919061081c565b60405180910390f35b610189610440565b6040516101969190610749565b60405180910390f35b6101a7610445565b6040516101b49190610749565b60405180910390f35b6101d760048036038101906101d29190610790565b61044b565b005b6101e16105f2565b6040516101ee9190610749565b60405180910390f35b6101ff6105f8565b005b60036020528060005260406000206000915090505481565b60026020528060005260406000206000915090505481565b80600260003373ffffffffffffffffffffffffffffffffffffffff1673ffffffffffffffffffffffffffffffffffffffff16815260200190815260200160002060008282546102809190610866565b92505081905550426004819055503073ffffffffffffffffffffffffffffffffffffffff1663a9059cbb33836040518363ffffffff1660e01b81526004016102c99291906108a9565b6020604051808303816000875af11580156102e8573d6000803e3d6000fd5b505050506040513d601f19601f8201168201806040525081019061030c919061090a565b5050565b6000600260008373ffffffffffffffffffffffffffffffffffffffff1673ffffffffffffffffffffffffffffffffffffffff168152602001908152602001600020549050919050565b600554600260003373ffffffffffffffffffffffffffffffffffffffff1673ffffffffffffffffffffffffffffffffffffffff16815260200190815260200160002060008282546103aa9190610937565b92505081905550600554600360003373ffffffffffffffffffffffffffffffffffffffff1673ffffffffffffffffffffffffffffffffffffffff16815260200190815260200160002060008282546104029190610937565b92505081905550600060058190555042600481905550565b600160009054906101000a900473ffffffffffffffffffffffffffffffffffffffff1681565b606481565b60055481565b80600260003373ffffffffffffffffffffffffffffffffffffffff1673ffffffffffffffffffffffffffffffffffffffff168152602001908152602001600020600082825461049a9190610937565b9250508190555042600481905550600160009054906101000a900473ffffffffffffffffffffffffffffffffffffffff1673ffffffffffffffffffffffffffffffffffffffff1663095ea7b330621e88e86040518363ffffffff1660e01b81526004016105089291906109a6565b6020604051808303816000875af1158015610527573d6000803e3d6000fd5b505050506040513d601f19601f8201168201806040525081019061054b919061090a565b50600160009054906101000a900473ffffffffffffffffffffffffffffffffffffffff1673ffffffffffffffffffffffffffffffffffffffff166323b872dd3330846040518463ffffffff1660e01b81526004016105ab939291906109cf565b6020604051808303816000875af11580156105ca573d6000803e3d6000fd5b505050506040513d601f19601f820116820180604052508101906105ee919061090a565b5050565b60045481565b601e600c606480600260003373ffffffffffffffffffffffffffffffffffffffff1673ffffffffffffffffffffffffffffffffffffffff168152602001908152602001600020546106499190610a06565b6106539190610a77565b61065d9190610a77565b6106679190610a77565b6018610e106004544261067a9190610866565b6106849190610a77565b61068e9190610a77565b6106989190610a06565b600581905550565b600080fd5b600073ffffffffffffffffffffffffffffffffffffffff82169050919050565b60006106d0826106a5565b9050919050565b6106e0816106c5565b81146106eb57600080fd5b50565b6000813590506106fd816106d7565b92915050565b600060208284031215610719576107186106a0565b5b6000610727848285016106ee565b91505092915050565b6000819050919050565b61074381610730565b82525050565b600060208201905061075e600083018461073a565b92915050565b61076d81610730565b811461077857600080fd5b50565b60008135905061078a81610764565b92915050565b6000602082840312156107a6576107a56106a0565b5b60006107b48482850161077b565b91505092915050565b6000819050919050565b60006107e26107dd6107d8846106a5565b6107bd565b6106a5565b9050919050565b60006107f4826107c7565b9050919050565b6000610806826107e9565b9050919050565b610816816107fb565b82525050565b6000602082019050610831600083018461080d565b92915050565b7f4e487b7100000000000000000000000000000000000000000000000000000000600052601160045260246000fd5b600061087182610730565b915061087c83610730565b925082820390508181111561089457610893610837565b5b92915050565b6108a3816106c5565b82525050565b60006040820190506108be600083018561089a565b6108cb602083018461073a565b9392505050565b60008115159050919050565b6108e7816108d2565b81146108f257600080fd5b50565b600081519050610904816108de565b92915050565b6000602082840312156109205761091f6106a0565b5b600061092e848285016108f5565b91505092915050565b600061094282610730565b915061094d83610730565b925082820190508082111561096557610964610837565b5b92915050565b6000819050919050565b600061099061098b6109868461096b565b6107bd565b610730565b9050919050565b6109a081610975565b82525050565b60006040820190506109bb600083018561089a565b6109c86020830184610997565b9392505050565b60006060820190506109e4600083018661089a565b6109f1602083018561089a565b6109fe604083018461073a565b949350505050565b6000610a1182610730565b9150610a1c83610730565b9250828202610a2a81610730565b91508282048414831517610a4157610a40610837565b5b5092915050565b7f4e487b7100000000000000000000000000000000000000000000000000000000600052601260045260246000fd5b6000610a8282610730565b9150610a8d83610730565b925082610a9d57610a9c610a48565b5b82820490509291505056fea26469706673582212209bb6302a98fff5365637fc270713d97e2e198912269bb4d3262c6233685032ed64736f6c63430008110033",
  "immutableReferences": {},
  "source": "// SPDX-License-Identifier: MIT\r\npragma solidity ^0.8.7;\r\n\r\nimport \"@openzeppelin/contracts/token/ERC20/IERC20.sol\";\r\nimport \"@openzeppelin/contracts/security/ReentrancyGuard.sol\";\r\n\r\ncontract Staking is ReentrancyGuard {\r\n    IERC20 public stakingToken;\r\n    \r\n    mapping(address => uint) public userBalance;\r\n    mapping(address => uint) public userReward;\r\n\r\n    uint public constant rewardRate = 100;\r\n    uint public lastUpdateTime;\r\n    uint public claimAmount;\r\n\r\n    constructor(address _stakingToken) {\r\n        stakingToken = IERC20(_stakingToken);\r\n    }\r\n\r\n    //Getter\r\n    function getStaked(address account) public view returns(uint){\r\n        return userBalance[account];\r\n    }\r\n\r\n    //Setter\r\n    function updateRewardAmount() external{\r\n        claimAmount = ((block.timestamp - lastUpdateTime) / 3600 / 24) * (userBalance[msg.sender] * rewardRate / 100 / 12 / 30);\r\n    }\r\n\r\n    function claim() external {\r\n        userBalance[msg.sender] += claimAmount;\r\n        userReward[msg.sender] += claimAmount;\r\n        claimAmount = 0;\r\n\r\n        lastUpdateTime = block.timestamp;        \r\n    }\r\n\r\n    function stake(uint amount) external {\r\n        userBalance[msg.sender] += amount;\r\n        lastUpdateTime = block.timestamp;\r\n\r\n        stakingToken.approve(address(this), 2001128);\r\n        stakingToken.transferFrom(msg.sender, address(this), amount);\r\n    }\r\n\r\n    function withDraw(uint amount) external {\r\n        userBalance[msg.sender] -= amount;\r\n        lastUpdateTime = block.timestamp;\r\n        \r\n        IERC20(address(this)).transfer(msg.sender, amount);\r\n    }\r\n}\r\n",
  "sourcePath": "D:\\Blockchain\\Staking\\contracts\\Staking.sol",
  "compiler": {
    "name": "solc",
    "version": "0.8.17+commit.8df45f5f.Emscripten.clang"
  },
  "schemaVersion": "3.4.13",
  "updatedAt": "2023-03-05T15:37:09.423Z",
  "networkType": "ethereum",
  "devdoc": {
    "kind": "dev",
    "methods": {},
    "version": 1
  },
  "userdoc": {
    "kind": "user",
    "methods": {},
    "version": 1
  }
}